{
    "_format": "hh-sol-artifact-1",
    "contractName": "Domains",
    "sourceName": "contracts/Domains.sol",
    "abi": [
        {
            "inputs": [
                {
                    "internalType": "string",
                    "name": "_tld",
                    "type": "string"
                }
            ],
            "stateMutability": "payable",
            "type": "constructor"
        },
        {
            "anonymous": false,
            "inputs": [
                {
                    "indexed": true,
                    "internalType": "address",
                    "name": "owner",
                    "type": "address"
                },
                {
                    "indexed": true,
                    "internalType": "address",
                    "name": "approved",
                    "type": "address"
                },
                {
                    "indexed": true,
                    "internalType": "uint256",
                    "name": "tokenId",
                    "type": "uint256"
                }
            ],
            "name": "Approval",
            "type": "event"
        },
        {
            "anonymous": false,
            "inputs": [
                {
                    "indexed": true,
                    "internalType": "address",
                    "name": "owner",
                    "type": "address"
                },
                {
                    "indexed": true,
                    "internalType": "address",
                    "name": "operator",
                    "type": "address"
                },
                {
                    "indexed": false,
                    "internalType": "bool",
                    "name": "approved",
                    "type": "bool"
                }
            ],
            "name": "ApprovalForAll",
            "type": "event"
        },
        {
            "anonymous": false,
            "inputs": [
                {
                    "indexed": true,
                    "internalType": "address",
                    "name": "from",
                    "type": "address"
                },
                {
                    "indexed": true,
                    "internalType": "address",
                    "name": "to",
                    "type": "address"
                },
                {
                    "indexed": true,
                    "internalType": "uint256",
                    "name": "tokenId",
                    "type": "uint256"
                }
            ],
            "name": "Transfer",
            "type": "event"
        },
        {
            "inputs": [
                {
                    "internalType": "address",
                    "name": "to",
                    "type": "address"
                },
                {
                    "internalType": "uint256",
                    "name": "tokenId",
                    "type": "uint256"
                }
            ],
            "name": "approve",
            "outputs": [],
            "stateMutability": "nonpayable",
            "type": "function"
        },
        {
            "inputs": [
                {
                    "internalType": "address",
                    "name": "owner",
                    "type": "address"
                }
            ],
            "name": "balanceOf",
            "outputs": [
                {
                    "internalType": "uint256",
                    "name": "",
                    "type": "uint256"
                }
            ],
            "stateMutability": "view",
            "type": "function"
        },
        {
            "inputs": [
                {
                    "internalType": "string",
                    "name": "",
                    "type": "string"
                }
            ],
            "name": "domains",
            "outputs": [
                {
                    "internalType": "address",
                    "name": "",
                    "type": "address"
                }
            ],
            "stateMutability": "view",
            "type": "function"
        },
        {
            "inputs": [
                {
                    "internalType": "uint256",
                    "name": "tokenId",
                    "type": "uint256"
                }
            ],
            "name": "getApproved",
            "outputs": [
                {
                    "internalType": "address",
                    "name": "",
                    "type": "address"
                }
            ],
            "stateMutability": "view",
            "type": "function"
        },
        {
            "inputs": [
                {
                    "internalType": "string",
                    "name": "domain",
                    "type": "string"
                }
            ],
            "name": "getOwner",
            "outputs": [
                {
                    "internalType": "address",
                    "name": "",
                    "type": "address"
                }
            ],
            "stateMutability": "view",
            "type": "function"
        },
        {
            "inputs": [
                {
                    "internalType": "string",
                    "name": "domain",
                    "type": "string"
                }
            ],
            "name": "getRecord",
            "outputs": [
                {
                    "internalType": "string",
                    "name": "",
                    "type": "string"
                }
            ],
            "stateMutability": "view",
            "type": "function"
        },
        {
            "inputs": [
                {
                    "internalType": "address",
                    "name": "owner",
                    "type": "address"
                },
                {
                    "internalType": "address",
                    "name": "operator",
                    "type": "address"
                }
            ],
            "name": "isApprovedForAll",
            "outputs": [
                {
                    "internalType": "bool",
                    "name": "",
                    "type": "bool"
                }
            ],
            "stateMutability": "view",
            "type": "function"
        },
        {
            "inputs": [],
            "name": "name",
            "outputs": [
                {
                    "internalType": "string",
                    "name": "",
                    "type": "string"
                }
            ],
            "stateMutability": "view",
            "type": "function"
        },
        {
            "inputs": [
                {
                    "internalType": "uint256",
                    "name": "tokenId",
                    "type": "uint256"
                }
            ],
            "name": "ownerOf",
            "outputs": [
                {
                    "internalType": "address",
                    "name": "",
                    "type": "address"
                }
            ],
            "stateMutability": "view",
            "type": "function"
        },
        {
            "inputs": [
                {
                    "internalType": "string",
                    "name": "domain",
                    "type": "string"
                }
            ],
            "name": "price",
            "outputs": [
                {
                    "internalType": "uint256",
                    "name": "",
                    "type": "uint256"
                }
            ],
            "stateMutability": "pure",
            "type": "function"
        },
        {
            "inputs": [
                {
                    "internalType": "string",
                    "name": "",
                    "type": "string"
                }
            ],
            "name": "records",
            "outputs": [
                {
                    "internalType": "string",
                    "name": "",
                    "type": "string"
                }
            ],
            "stateMutability": "view",
            "type": "function"
        },
        {
            "inputs": [
                {
                    "internalType": "string",
                    "name": "domain",
                    "type": "string"
                }
            ],
            "name": "register",
            "outputs": [],
            "stateMutability": "payable",
            "type": "function"
        },
        {
            "inputs": [
                {
                    "internalType": "address",
                    "name": "from",
                    "type": "address"
                },
                {
                    "internalType": "address",
                    "name": "to",
                    "type": "address"
                },
                {
                    "internalType": "uint256",
                    "name": "tokenId",
                    "type": "uint256"
                }
            ],
            "name": "safeTransferFrom",
            "outputs": [],
            "stateMutability": "nonpayable",
            "type": "function"
        },
        {
            "inputs": [
                {
                    "internalType": "address",
                    "name": "from",
                    "type": "address"
                },
                {
                    "internalType": "address",
                    "name": "to",
                    "type": "address"
                },
                {
                    "internalType": "uint256",
                    "name": "tokenId",
                    "type": "uint256"
                },
                {
                    "internalType": "bytes",
                    "name": "data",
                    "type": "bytes"
                }
            ],
            "name": "safeTransferFrom",
            "outputs": [],
            "stateMutability": "nonpayable",
            "type": "function"
        },
        {
            "inputs": [
                {
                    "internalType": "address",
                    "name": "operator",
                    "type": "address"
                },
                {
                    "internalType": "bool",
                    "name": "approved",
                    "type": "bool"
                }
            ],
            "name": "setApprovalForAll",
            "outputs": [],
            "stateMutability": "nonpayable",
            "type": "function"
        },
        {
            "inputs": [
                {
                    "internalType": "string",
                    "name": "domain",
                    "type": "string"
                },
                {
                    "internalType": "string",
                    "name": "record",
                    "type": "string"
                }
            ],
            "name": "setRecord",
            "outputs": [],
            "stateMutability": "nonpayable",
            "type": "function"
        },
        {
            "inputs": [
                {
                    "internalType": "bytes4",
                    "name": "interfaceId",
                    "type": "bytes4"
                }
            ],
            "name": "supportsInterface",
            "outputs": [
                {
                    "internalType": "bool",
                    "name": "",
                    "type": "bool"
                }
            ],
            "stateMutability": "view",
            "type": "function"
        },
        {
            "inputs": [],
            "name": "symbol",
            "outputs": [
                {
                    "internalType": "string",
                    "name": "",
                    "type": "string"
                }
            ],
            "stateMutability": "view",
            "type": "function"
        },
        {
            "inputs": [],
            "name": "tld",
            "outputs": [
                {
                    "internalType": "string",
                    "name": "",
                    "type": "string"
                }
            ],
            "stateMutability": "view",
            "type": "function"
        },
        {
            "inputs": [
                {
                    "internalType": "uint256",
                    "name": "tokenId",
                    "type": "uint256"
                }
            ],
            "name": "tokenURI",
            "outputs": [
                {
                    "internalType": "string",
                    "name": "",
                    "type": "string"
                }
            ],
            "stateMutability": "view",
            "type": "function"
        },
        {
            "inputs": [
                {
                    "internalType": "address",
                    "name": "from",
                    "type": "address"
                },
                {
                    "internalType": "address",
                    "name": "to",
                    "type": "address"
                },
                {
                    "internalType": "uint256",
                    "name": "tokenId",
                    "type": "uint256"
                }
            ],
            "name": "transferFrom",
            "outputs": [],
            "stateMutability": "nonpayable",
            "type": "function"
        }
    ],
    "bytecode": "0x6080604052604051806108a0016040528061086b815260200162004a0161086b91396009908051906020019062000038929190620002fd565b506040518060400160405280600d81526020017f3c2f746578743e3c2f7376673e00000000000000000000000000000000000000815250600a908051906020019062000086929190620002fd565b5060405162005294380380620052948339818101604052810190620000ac91906200054a565b6040518060400160405280601381526020017f42756c62756c204e616d652053657276696365000000000000000000000000008152506040518060400160405280600381526020017f424e530000000000000000000000000000000000000000000000000000000000815250816000908051906020019062000130929190620002fd565b50806001908051906020019062000149929190620002fd565b505050806008908051906020019062000164929190620002fd565b50620002276040518060600160405280602881526020016200526c60289139600880546200019290620005ca565b80601f0160208091040260200160405190810160405280929190818152602001828054620001c090620005ca565b8015620002115780601f10620001e55761010080835404028352916020019162000211565b820191906000526020600020905b815481529060010190602001808311620001f357829003601f168201915b50505050506200022e60201b6200162f1760201c565b5062000698565b620002d08282604051602401620002479291906200065d565b6040516020818303038152906040527f4b5c4277000000000000000000000000000000000000000000000000000000007bffffffffffffffffffffffffffffffffffffffffffffffffffffffff19166020820180517bffffffffffffffffffffffffffffffffffffffffffffffffffffffff8381831617835250505050620002d460201b60201c565b5050565b60008151905060006a636f6e736f6c652e6c6f679050602083016000808483855afa5050505050565b8280546200030b90620005ca565b90600052602060002090601f0160209004810192826200032f57600085556200037b565b82601f106200034a57805160ff19168380011785556200037b565b828001600101855582156200037b579182015b828111156200037a5782518255916020019190600101906200035d565b5b5090506200038a91906200038e565b5090565b5b80821115620003a95760008160009055506001016200038f565b5090565b6000604051905090565b600080fd5b600080fd5b600080fd5b600080fd5b6000601f19601f8301169050919050565b7f4e487b7100000000000000000000000000000000000000000000000000000000600052604160045260246000fd5b6200041682620003cb565b810181811067ffffffffffffffff82111715620004385762000437620003dc565b5b80604052505050565b60006200044d620003ad565b90506200045b82826200040b565b919050565b600067ffffffffffffffff8211156200047e576200047d620003dc565b5b6200048982620003cb565b9050602081019050919050565b60005b83811015620004b657808201518184015260208101905062000499565b83811115620004c6576000848401525b50505050565b6000620004e3620004dd8462000460565b62000441565b905082815260208101848484011115620005025762000501620003c6565b5b6200050f84828562000496565b509392505050565b600082601f8301126200052f576200052e620003c1565b5b815162000541848260208601620004cc565b91505092915050565b600060208284031215620005635762000562620003b7565b5b600082015167ffffffffffffffff811115620005845762000583620003bc565b5b620005928482850162000517565b91505092915050565b7f4e487b7100000000000000000000000000000000000000000000000000000000600052602260045260246000fd5b60006002820490506001821680620005e357607f821691505b60208210811415620005fa57620005f96200059b565b5b50919050565b600081519050919050565b600082825260208201905092915050565b6000620006298262000600565b6200063581856200060b565b93506200064781856020860162000496565b6200065281620003cb565b840191505092915050565b600060408201905081810360008301526200067981856200061c565b905081810360208301526200068f81846200061c565b90509392505050565b61435980620006a86000396000f3fe60806040526004361061012a5760003560e01c8063541e771d116100ab578063b88d4fde1161006f578063b88d4fde1461043c578063c1880a9814610465578063c87b56dd1461048e578063e985e9c5146104cb578063f2c298be14610508578063fe2c6198146105245761012a565b8063541e771d146103315780636352211e1461036e57806370a08231146103ab57806395d89b41146103e8578063a22cb465146104135761012a565b806323b872dd116100f257806323b872dd1461023a57806326449235146102635780632d551432146102a057806342842e0e146102cb5780634aaf4a12146102f45761012a565b806301ffc9a71461012f57806306fdde031461016c578063081812fc14610197578063095ea7b3146101d457806311dd8845146101fd575b600080fd5b34801561013b57600080fd5b5061015660048036038101906101519190612aa3565b610561565b6040516101639190612aeb565b60405180910390f35b34801561017857600080fd5b50610181610643565b60405161018e9190612b9f565b60405180910390f35b3480156101a357600080fd5b506101be60048036038101906101b99190612bf7565b6106d5565b6040516101cb9190612c65565b60405180910390f35b3480156101e057600080fd5b506101fb60048036038101906101f69190612cac565b61071b565b005b34801561020957600080fd5b50610224600480360381019061021f9190612d51565b610833565b6040516102319190612b9f565b60405180910390f35b34801561024657600080fd5b50610261600480360381019061025c9190612d9e565b6108e6565b005b34801561026f57600080fd5b5061028a60048036038101906102859190612f21565b610946565b6040516102979190612c65565b60405180910390f35b3480156102ac57600080fd5b506102b561098f565b6040516102c29190612b9f565b60405180910390f35b3480156102d757600080fd5b506102f260048036038101906102ed9190612d9e565b610a1d565b005b34801561030057600080fd5b5061031b60048036038101906103169190612d51565b610a3d565b6040516103289190612c65565b60405180910390f35b34801561033d57600080fd5b5061035860048036038101906103539190612f21565b610a88565b6040516103659190612b9f565b60405180910390f35b34801561037a57600080fd5b5061039560048036038101906103909190612bf7565b610b3e565b6040516103a29190612c65565b60405180910390f35b3480156103b757600080fd5b506103d260048036038101906103cd9190612f6a565b610bf0565b6040516103df9190612fa6565b60405180910390f35b3480156103f457600080fd5b506103fd610ca8565b60405161040a9190612b9f565b60405180910390f35b34801561041f57600080fd5b5061043a60048036038101906104359190612fed565b610d3a565b005b34801561044857600080fd5b50610463600480360381019061045e91906130ce565b610d50565b005b34801561047157600080fd5b5061048c60048036038101906104879190613151565b610db2565b005b34801561049a57600080fd5b506104b560048036038101906104b09190612bf7565b610f5e565b6040516104c29190612b9f565b60405180910390f35b3480156104d757600080fd5b506104f260048036038101906104ed91906131d2565b611071565b6040516104ff9190612aeb565b60405180910390f35b610522600480360381019061051d9190612d51565b611105565b005b34801561053057600080fd5b5061054b60048036038101906105469190612d51565b611556565b6040516105589190612fa6565b60405180910390f35b60007f80ac58cd000000000000000000000000000000000000000000000000000000007bffffffffffffffffffffffffffffffffffffffffffffffffffffffff1916827bffffffffffffffffffffffffffffffffffffffffffffffffffffffff1916148061062c57507f5b5e139f000000000000000000000000000000000000000000000000000000007bffffffffffffffffffffffffffffffffffffffffffffffffffffffff1916827bffffffffffffffffffffffffffffffffffffffffffffffffffffffff1916145b8061063c575061063b826116cb565b5b9050919050565b60606000805461065290613241565b80601f016020809104026020016040519081016040528092919081815260200182805461067e90613241565b80156106cb5780601f106106a0576101008083540402835291602001916106cb565b820191906000526020600020905b8154815290600101906020018083116106ae57829003601f168201915b5050505050905090565b60006106e082611735565b6004600083815260200190815260200160002060009054906101000a900473ffffffffffffffffffffffffffffffffffffffff169050919050565b600061072682610b3e565b90508073ffffffffffffffffffffffffffffffffffffffff168373ffffffffffffffffffffffffffffffffffffffff161415610797576040517f08c379a000000000000000000000000000000000000000000000000000000000815260040161078e906132e5565b60405180910390fd5b8073ffffffffffffffffffffffffffffffffffffffff166107b6611780565b73ffffffffffffffffffffffffffffffffffffffff1614806107e557506107e4816107df611780565b611071565b5b610824576040517f08c379a000000000000000000000000000000000000000000000000000000000815260040161081b90613377565b60405180910390fd5b61082e8383611788565b505050565b6060600c83836040516108479291906133c7565b9081526020016040518091039020805461086090613241565b80601f016020809104026020016040519081016040528092919081815260200182805461088c90613241565b80156108d95780601f106108ae576101008083540402835291602001916108d9565b820191906000526020600020905b8154815290600101906020018083116108bc57829003601f168201915b5050505050905092915050565b6108f76108f1611780565b82611841565b610936576040517f08c379a000000000000000000000000000000000000000000000000000000000815260040161092d90613452565b60405180910390fd5b6109418383836118d6565b505050565b600b818051602081018201805184825260208301602085012081835280955050505050506000915054906101000a900473ffffffffffffffffffffffffffffffffffffffff1681565b6008805461099c90613241565b80601f01602080910402602001604051908101604052809291908181526020018280546109c890613241565b8015610a155780601f106109ea57610100808354040283529160200191610a15565b820191906000526020600020905b8154815290600101906020018083116109f857829003601f168201915b505050505081565b610a3883838360405180602001604052806000815250610d50565b505050565b6000600b8383604051610a519291906133c7565b908152602001604051809103902060009054906101000a900473ffffffffffffffffffffffffffffffffffffffff16905092915050565b600c818051602081018201805184825260208301602085012081835280955050505050506000915090508054610abd90613241565b80601f0160208091040260200160405190810160405280929190818152602001828054610ae990613241565b8015610b365780601f10610b0b57610100808354040283529160200191610b36565b820191906000526020600020905b815481529060010190602001808311610b1957829003601f168201915b505050505081565b6000806002600084815260200190815260200160002060009054906101000a900473ffffffffffffffffffffffffffffffffffffffff169050600073ffffffffffffffffffffffffffffffffffffffff168173ffffffffffffffffffffffffffffffffffffffff161415610be7576040517f08c379a0000000000000000000000000000000000000000000000000000000008152600401610bde906134be565b60405180910390fd5b80915050919050565b60008073ffffffffffffffffffffffffffffffffffffffff168273ffffffffffffffffffffffffffffffffffffffff161415610c61576040517f08c379a0000000000000000000000000000000000000000000000000000000008152600401610c5890613550565b60405180910390fd5b600360008373ffffffffffffffffffffffffffffffffffffffff1673ffffffffffffffffffffffffffffffffffffffff168152602001908152602001600020549050919050565b606060018054610cb790613241565b80601f0160208091040260200160405190810160405280929190818152602001828054610ce390613241565b8015610d305780601f10610d0557610100808354040283529160200191610d30565b820191906000526020600020905b815481529060010190602001808311610d1357829003601f168201915b5050505050905090565b610d4c610d45611780565b8383611b3d565b5050565b610d61610d5b611780565b83611841565b610da0576040517f08c379a0000000000000000000000000000000000000000000000000000000008152600401610d9790613452565b60405180910390fd5b610dac84848484611caa565b50505050565b3373ffffffffffffffffffffffffffffffffffffffff16600b8585604051610ddb9291906133c7565b908152602001604051809103902060009054906101000a900473ffffffffffffffffffffffffffffffffffffffff1673ffffffffffffffffffffffffffffffffffffffff1614610e60576040517f08c379a0000000000000000000000000000000000000000000000000000000008152600401610e57906135e2565b60405180910390fd5b8181600c8686604051610e749291906133c7565b90815260200160405180910390209190610e8f92919061290e565b50610f586040518060400160405280601b81526020017f536574207265636f726420257320666f7220646f6d61696e202573000000000081525083838080601f016020809104026020016040519081016040528093929190818152602001838380828437600081840152601f19601f8201169050808301925050505050505086868080601f016020809104026020016040519081016040528093929190818152602001838380828437600081840152601f19601f82011690508083019250505050505050611d06565b50505050565b6060610f6982611735565b6000600660008481526020019081526020016000208054610f8990613241565b80601f0160208091040260200160405190810160405280929190818152602001828054610fb590613241565b80156110025780601f10610fd757610100808354040283529160200191611002565b820191906000526020600020905b815481529060010190602001808311610fe557829003601f168201915b505050505090506000611013611da5565b905060008151141561102957819250505061106c565b60008251111561105e578082604051602001611046929190613633565b6040516020818303038152906040529250505061106c565b61106784611dbc565b925050505b919050565b6000600560008473ffffffffffffffffffffffffffffffffffffffff1673ffffffffffffffffffffffffffffffffffffffff16815260200190815260200160002060008373ffffffffffffffffffffffffffffffffffffffff1673ffffffffffffffffffffffffffffffffffffffff16815260200190815260200160002060009054906101000a900460ff16905092915050565b600073ffffffffffffffffffffffffffffffffffffffff16600b838360405161112f9291906133c7565b908152602001604051809103902060009054906101000a900473ffffffffffffffffffffffffffffffffffffffff1673ffffffffffffffffffffffffffffffffffffffff16146111b4576040517f08c379a00000000000000000000000000000000000000000000000000000000081526004016111ab906136a3565b60405180910390fd5b60006111c08383611556565b905080341015611205576040517f08c379a00000000000000000000000000000000000000000000000000000000081526004016111fc9061370f565b60405180910390fd5b60008383600860405160200161121d9392919061380f565b60405160208183030381529060405290506000600982600a60405160200161124793929190613840565b604051602081830303815290604052905060006112646007611e24565b905060006112b587878080601f016020809104026020016040519081016040528093929190818152602001838380828437600081840152601f19601f82011690508083019250505050505050611e32565b905060006112c282611fe7565b90506113b66040518060600160405280603181526020016142b36031913989898080601f016020809104026020016040519081016040528093929190818152602001838380828437600081840152601f19601f820116905080830192505050505050506008805461133290613241565b80601f016020809104026020016040519081016040528092919081815260200182805461135e90613241565b80156113ab5780601f10611380576101008083540402835291602001916113ab565b820191906000526020600020905b81548152906001019060200180831161138e57829003601f168201915b505050505086612148565b60006113ec866113c5876121ea565b846040516020016113d8939291906139ed565b6040516020818303038152906040526121ea565b90506000816040516020016114019190613a96565b60405160208183030381529060405290506114506040518060400160405280601581526020017f0a2d2d2d2d2d2d2d2d2d2d2d2d2d2d2d2d2d2d2d2d000000000000000000000081525061234e565b61148f6040518060400160405280601081526020017f46696e616c20746f6b656e205552490a000000000000000000000000000000008152508261162f565b6114cd6040518060400160405280601581526020017f2d2d2d2d2d2d2d2d2d2d2d2d2d2d2d2d2d2d2d2d0a000000000000000000000081525061234e565b6114d733866123e7565b6114e18582612405565b33600b8b8b6040516114f49291906133c7565b908152602001604051809103902060006101000a81548173ffffffffffffffffffffffffffffffffffffffff021916908373ffffffffffffffffffffffffffffffffffffffff16021790555061154a6007612479565b50505050505050505050565b6000806115a684848080601f016020809104026020016040519081016040528093929190818152602001838380828437600081840152601f19601f82011690508083019250505050505050611e32565b9050600081116115eb576040517f08c379a00000000000000000000000000000000000000000000000000000000081526004016115e290613b2a565b60405180910390fd5b6003811415611604576611c37937e08000915050611629565b600481141561161d57660aa87bee538000915050611629565b66038d7ea4c680009150505b92915050565b6116c78282604051602401611645929190613b4a565b6040516020818303038152906040527f4b5c4277000000000000000000000000000000000000000000000000000000007bffffffffffffffffffffffffffffffffffffffffffffffffffffffff19166020820180517bffffffffffffffffffffffffffffffffffffffffffffffffffffffff838183161783525050505061248f565b5050565b60007f01ffc9a7000000000000000000000000000000000000000000000000000000007bffffffffffffffffffffffffffffffffffffffffffffffffffffffff1916827bffffffffffffffffffffffffffffffffffffffffffffffffffffffff1916149050919050565b61173e816124b8565b61177d576040517f08c379a0000000000000000000000000000000000000000000000000000000008152600401611774906134be565b60405180910390fd5b50565b600033905090565b816004600083815260200190815260200160002060006101000a81548173ffffffffffffffffffffffffffffffffffffffff021916908373ffffffffffffffffffffffffffffffffffffffff160217905550808273ffffffffffffffffffffffffffffffffffffffff166117fb83610b3e565b73ffffffffffffffffffffffffffffffffffffffff167f8c5be1e5ebec7d5bd14f71427d1e84f3dd0314c0f7b2291e5b200ac8c7c3b92560405160405180910390a45050565b60008061184d83610b3e565b90508073ffffffffffffffffffffffffffffffffffffffff168473ffffffffffffffffffffffffffffffffffffffff16148061188f575061188e8185611071565b5b806118cd57508373ffffffffffffffffffffffffffffffffffffffff166118b5846106d5565b73ffffffffffffffffffffffffffffffffffffffff16145b91505092915050565b8273ffffffffffffffffffffffffffffffffffffffff166118f682610b3e565b73ffffffffffffffffffffffffffffffffffffffff161461194c576040517f08c379a000000000000000000000000000000000000000000000000000000000815260040161194390613bf3565b60405180910390fd5b600073ffffffffffffffffffffffffffffffffffffffff168273ffffffffffffffffffffffffffffffffffffffff1614156119bc576040517f08c379a00000000000000000000000000000000000000000000000000000000081526004016119b390613c85565b60405180910390fd5b6119c7838383612524565b6119d2600082611788565b6001600360008573ffffffffffffffffffffffffffffffffffffffff1673ffffffffffffffffffffffffffffffffffffffff1681526020019081526020016000206000828254611a229190613cd4565b925050819055506001600360008473ffffffffffffffffffffffffffffffffffffffff1673ffffffffffffffffffffffffffffffffffffffff1681526020019081526020016000206000828254611a799190613d08565b92505081905550816002600083815260200190815260200160002060006101000a81548173ffffffffffffffffffffffffffffffffffffffff021916908373ffffffffffffffffffffffffffffffffffffffff160217905550808273ffffffffffffffffffffffffffffffffffffffff168473ffffffffffffffffffffffffffffffffffffffff167fddf252ad1be2c89b69c2b068fc378daa952ba7f163c4a11628f55a4df523b3ef60405160405180910390a4611b38838383612529565b505050565b8173ffffffffffffffffffffffffffffffffffffffff168373ffffffffffffffffffffffffffffffffffffffff161415611bac576040517f08c379a0000000000000000000000000000000000000000000000000000000008152600401611ba390613daa565b60405180910390fd5b80600560008573ffffffffffffffffffffffffffffffffffffffff1673ffffffffffffffffffffffffffffffffffffffff16815260200190815260200160002060008473ffffffffffffffffffffffffffffffffffffffff1673ffffffffffffffffffffffffffffffffffffffff16815260200190815260200160002060006101000a81548160ff0219169083151502179055508173ffffffffffffffffffffffffffffffffffffffff168373ffffffffffffffffffffffffffffffffffffffff167f17307eab39ab6107e8899845ad3d59bd9653f200f220920489ca2b5937696c3183604051611c9d9190612aeb565b60405180910390a3505050565b611cb58484846118d6565b611cc18484848461252e565b611d00576040517f08c379a0000000000000000000000000000000000000000000000000000000008152600401611cf790613e3c565b60405180910390fd5b50505050565b611da0838383604051602401611d1e93929190613e5c565b6040516020818303038152906040527f2ced7cef000000000000000000000000000000000000000000000000000000007bffffffffffffffffffffffffffffffffffffffffffffffffffffffff19166020820180517bffffffffffffffffffffffffffffffffffffffffffffffffffffffff838183161783525050505061248f565b505050565b606060405180602001604052806000815250905090565b6060611dc782611735565b6000611dd1611da5565b90506000815111611df15760405180602001604052806000815250611e1c565b80611dfb84611fe7565b604051602001611e0c929190613633565b6040516020818303038152906040525b915050919050565b600081600001549050919050565b60008060008084519050600092505b80821015611fdc576000858381518110611e5e57611e5d613ea8565b5b602001015160f81c60f81b9050608060f81b817effffffffffffffffffffffffffffffffffffffffffffffffffffffffffffff19161015611ead57600183611ea69190613d08565b9250611fc8565b60e060f81b817effffffffffffffffffffffffffffffffffffffffffffffffffffffffffffff19161015611eef57600283611ee89190613d08565b9250611fc7565b60f060f81b817effffffffffffffffffffffffffffffffffffffffffffffffffffffffffffff19161015611f3157600383611f2a9190613d08565b9250611fc6565b60f8801b817effffffffffffffffffffffffffffffffffffffffffffffffffffffffffffff19161015611f7257600483611f6b9190613d08565b9250611fc5565b60fc60f81b817effffffffffffffffffffffffffffffffffffffffffffffffffffffffffffff19161015611fb457600583611fad9190613d08565b9250611fc4565b600683611fc19190613d08565b92505b5b5b5b5b508280611fd490613ed7565b935050611e41565b829350505050919050565b6060600082141561202f576040518060400160405280600181526020017f30000000000000000000000000000000000000000000000000000000000000008152509050612143565b600082905060005b6000821461206157808061204a90613ed7565b915050600a8261205a9190613f4f565b9150612037565b60008167ffffffffffffffff81111561207d5761207c612df6565b5b6040519080825280601f01601f1916602001820160405280156120af5781602001600182028036833780820191505090505b5090505b6000851461213c576001826120c89190613cd4565b9150600a856120d79190613f80565b60306120e39190613d08565b60f81b8183815181106120f9576120f8613ea8565b5b60200101907effffffffffffffffffffffffffffffffffffffffffffffffffffffffffffff1916908160001a905350600a856121359190613f4f565b94506120b3565b8093505050505b919050565b6121e4848484846040516024016121629493929190613fb1565b6040516020818303038152906040527f8eafb02b000000000000000000000000000000000000000000000000000000007bffffffffffffffffffffffffffffffffffffffffffffffffffffffff19166020820180517bffffffffffffffffffffffffffffffffffffffffffffffffffffffff838183161783525050505061248f565b50505050565b606060008251141561220d57604051806020016040528060008152509050612349565b60006040518060600160405280604081526020016142e4604091399050600060036002855161223c9190613d08565b6122469190613f4f565b6004612252919061400b565b67ffffffffffffffff81111561226b5761226a612df6565b5b6040519080825280601f01601f19166020018201604052801561229d5781602001600182028036833780820191505090505b509050600182016020820185865187015b80821015612309576003820191508151603f8160121c168501518453600184019350603f81600c1c168501518453600184019350603f8160061c168501518453600184019350603f81168501518453600184019350506122ae565b5050600386510660018114612325576002811461233857612340565b603d6001830353603d6002830353612340565b603d60018303535b50505080925050505b919050565b6123e4816040516024016123629190612b9f565b6040516020818303038152906040527f41304fac000000000000000000000000000000000000000000000000000000007bffffffffffffffffffffffffffffffffffffffffffffffffffffffff19166020820180517bffffffffffffffffffffffffffffffffffffffffffffffffffffffff838183161783525050505061248f565b50565b6124018282604051806020016040528060008152506126b6565b5050565b61240e826124b8565b61244d576040517f08c379a0000000000000000000000000000000000000000000000000000000008152600401612444906140d7565b60405180910390fd5b80600660008481526020019081526020016000209080519060200190612474929190612994565b505050565b6001816000016000828254019250508190555050565b60008151905060006a636f6e736f6c652e6c6f679050602083016000808483855afa5050505050565b60008073ffffffffffffffffffffffffffffffffffffffff166002600084815260200190815260200160002060009054906101000a900473ffffffffffffffffffffffffffffffffffffffff1673ffffffffffffffffffffffffffffffffffffffff1614159050919050565b505050565b505050565b600061254f8473ffffffffffffffffffffffffffffffffffffffff16612711565b156126a9578373ffffffffffffffffffffffffffffffffffffffff1663150b7a02612578611780565b8786866040518563ffffffff1660e01b815260040161259a949392919061414c565b6020604051808303816000875af19250505080156125d657506040513d601f19601f820116820180604052508101906125d391906141ad565b60015b612659573d8060008114612606576040519150601f19603f3d011682016040523d82523d6000602084013e61260b565b606091505b50600081511415612651576040517f08c379a000000000000000000000000000000000000000000000000000000000815260040161264890613e3c565b60405180910390fd5b805181602001fd5b63150b7a0260e01b7bffffffffffffffffffffffffffffffffffffffffffffffffffffffff1916817bffffffffffffffffffffffffffffffffffffffffffffffffffffffff1916149150506126ae565b600190505b949350505050565b6126c08383612734565b6126cd600084848461252e565b61270c576040517f08c379a000000000000000000000000000000000000000000000000000000000815260040161270390613e3c565b60405180910390fd5b505050565b6000808273ffffffffffffffffffffffffffffffffffffffff163b119050919050565b600073ffffffffffffffffffffffffffffffffffffffff168273ffffffffffffffffffffffffffffffffffffffff1614156127a4576040517f08c379a000000000000000000000000000000000000000000000000000000000815260040161279b90614226565b60405180910390fd5b6127ad816124b8565b156127ed576040517f08c379a00000000000000000000000000000000000000000000000000000000081526004016127e490614292565b60405180910390fd5b6127f960008383612524565b6001600360008473ffffffffffffffffffffffffffffffffffffffff1673ffffffffffffffffffffffffffffffffffffffff16815260200190815260200160002060008282546128499190613d08565b92505081905550816002600083815260200190815260200160002060006101000a81548173ffffffffffffffffffffffffffffffffffffffff021916908373ffffffffffffffffffffffffffffffffffffffff160217905550808273ffffffffffffffffffffffffffffffffffffffff16600073ffffffffffffffffffffffffffffffffffffffff167fddf252ad1be2c89b69c2b068fc378daa952ba7f163c4a11628f55a4df523b3ef60405160405180910390a461290a60008383612529565b5050565b82805461291a90613241565b90600052602060002090601f01602090048101928261293c5760008555612983565b82601f1061295557803560ff1916838001178555612983565b82800160010185558215612983579182015b82811115612982578235825591602001919060010190612967565b5b5090506129909190612a1a565b5090565b8280546129a090613241565b90600052602060002090601f0160209004810192826129c25760008555612a09565b82601f106129db57805160ff1916838001178555612a09565b82800160010185558215612a09579182015b82811115612a085782518255916020019190600101906129ed565b5b509050612a169190612a1a565b5090565b5b80821115612a33576000816000905550600101612a1b565b5090565b6000604051905090565b600080fd5b600080fd5b60007fffffffff0000000000000000000000000000000000000000000000000000000082169050919050565b612a8081612a4b565b8114612a8b57600080fd5b50565b600081359050612a9d81612a77565b92915050565b600060208284031215612ab957612ab8612a41565b5b6000612ac784828501612a8e565b91505092915050565b60008115159050919050565b612ae581612ad0565b82525050565b6000602082019050612b006000830184612adc565b92915050565b600081519050919050565b600082825260208201905092915050565b60005b83811015612b40578082015181840152602081019050612b25565b83811115612b4f576000848401525b50505050565b6000601f19601f8301169050919050565b6000612b7182612b06565b612b7b8185612b11565b9350612b8b818560208601612b22565b612b9481612b55565b840191505092915050565b60006020820190508181036000830152612bb98184612b66565b905092915050565b6000819050919050565b612bd481612bc1565b8114612bdf57600080fd5b50565b600081359050612bf181612bcb565b92915050565b600060208284031215612c0d57612c0c612a41565b5b6000612c1b84828501612be2565b91505092915050565b600073ffffffffffffffffffffffffffffffffffffffff82169050919050565b6000612c4f82612c24565b9050919050565b612c5f81612c44565b82525050565b6000602082019050612c7a6000830184612c56565b92915050565b612c8981612c44565b8114612c9457600080fd5b50565b600081359050612ca681612c80565b92915050565b60008060408385031215612cc357612cc2612a41565b5b6000612cd185828601612c97565b9250506020612ce285828601612be2565b9150509250929050565b600080fd5b600080fd5b600080fd5b60008083601f840112612d1157612d10612cec565b5b8235905067ffffffffffffffff811115612d2e57612d2d612cf1565b5b602083019150836001820283011115612d4a57612d49612cf6565b5b9250929050565b60008060208385031215612d6857612d67612a41565b5b600083013567ffffffffffffffff811115612d8657612d85612a46565b5b612d9285828601612cfb565b92509250509250929050565b600080600060608486031215612db757612db6612a41565b5b6000612dc586828701612c97565b9350506020612dd686828701612c97565b9250506040612de786828701612be2565b9150509250925092565b600080fd5b7f4e487b7100000000000000000000000000000000000000000000000000000000600052604160045260246000fd5b612e2e82612b55565b810181811067ffffffffffffffff82111715612e4d57612e4c612df6565b5b80604052505050565b6000612e60612a37565b9050612e6c8282612e25565b919050565b600067ffffffffffffffff821115612e8c57612e8b612df6565b5b612e9582612b55565b9050602081019050919050565b82818337600083830152505050565b6000612ec4612ebf84612e71565b612e56565b905082815260208101848484011115612ee057612edf612df1565b5b612eeb848285612ea2565b509392505050565b600082601f830112612f0857612f07612cec565b5b8135612f18848260208601612eb1565b91505092915050565b600060208284031215612f3757612f36612a41565b5b600082013567ffffffffffffffff811115612f5557612f54612a46565b5b612f6184828501612ef3565b91505092915050565b600060208284031215612f8057612f7f612a41565b5b6000612f8e84828501612c97565b91505092915050565b612fa081612bc1565b82525050565b6000602082019050612fbb6000830184612f97565b92915050565b612fca81612ad0565b8114612fd557600080fd5b50565b600081359050612fe781612fc1565b92915050565b6000806040838503121561300457613003612a41565b5b600061301285828601612c97565b925050602061302385828601612fd8565b9150509250929050565b600067ffffffffffffffff82111561304857613047612df6565b5b61305182612b55565b9050602081019050919050565b600061307161306c8461302d565b612e56565b90508281526020810184848401111561308d5761308c612df1565b5b613098848285612ea2565b509392505050565b600082601f8301126130b5576130b4612cec565b5b81356130c584826020860161305e565b91505092915050565b600080600080608085870312156130e8576130e7612a41565b5b60006130f687828801612c97565b945050602061310787828801612c97565b935050604061311887828801612be2565b925050606085013567ffffffffffffffff81111561313957613138612a46565b5b613145878288016130a0565b91505092959194509250565b6000806000806040858703121561316b5761316a612a41565b5b600085013567ffffffffffffffff81111561318957613188612a46565b5b61319587828801612cfb565b9450945050602085013567ffffffffffffffff8111156131b8576131b7612a46565b5b6131c487828801612cfb565b925092505092959194509250565b600080604083850312156131e9576131e8612a41565b5b60006131f785828601612c97565b925050602061320885828601612c97565b9150509250929050565b7f4e487b7100000000000000000000000000000000000000000000000000000000600052602260045260246000fd5b6000600282049050600182168061325957607f821691505b6020821081141561326d5761326c613212565b5b50919050565b7f4552433732313a20617070726f76616c20746f2063757272656e74206f776e6560008201527f7200000000000000000000000000000000000000000000000000000000000000602082015250565b60006132cf602183612b11565b91506132da82613273565b604082019050919050565b600060208201905081810360008301526132fe816132c2565b9050919050565b7f4552433732313a20617070726f76652063616c6c6572206973206e6f7420746f60008201527f6b656e206f776e6572206e6f7220617070726f76656420666f7220616c6c0000602082015250565b6000613361603e83612b11565b915061336c82613305565b604082019050919050565b6000602082019050818103600083015261339081613354565b9050919050565b600081905092915050565b60006133ae8385613397565b93506133bb838584612ea2565b82840190509392505050565b60006133d48284866133a2565b91508190509392505050565b7f4552433732313a2063616c6c6572206973206e6f7420746f6b656e206f776e6560008201527f72206e6f7220617070726f766564000000000000000000000000000000000000602082015250565b600061343c602e83612b11565b9150613447826133e0565b604082019050919050565b6000602082019050818103600083015261346b8161342f565b9050919050565b7f4552433732313a20696e76616c696420746f6b656e2049440000000000000000600082015250565b60006134a8601883612b11565b91506134b382613472565b602082019050919050565b600060208201905081810360008301526134d78161349b565b9050919050565b7f4552433732313a2061646472657373207a65726f206973206e6f74206120766160008201527f6c6964206f776e65720000000000000000000000000000000000000000000000602082015250565b600061353a602983612b11565b9150613545826134de565b604082019050919050565b600060208201905081810360008301526135698161352d565b9050919050565b7f596f7520617265206e6f7420746865206f776e6572206f66207468697320646f60008201527f6d61696e00000000000000000000000000000000000000000000000000000000602082015250565b60006135cc602483612b11565b91506135d782613570565b604082019050919050565b600060208201905081810360008301526135fb816135bf565b9050919050565b600061360d82612b06565b6136178185613397565b9350613627818560208601612b22565b80840191505092915050565b600061363f8285613602565b915061364b8284613602565b91508190509392505050565b7f446f6d61696e20616c7265616479207265676973746572656400000000000000600082015250565b600061368d601983612b11565b915061369882613657565b602082019050919050565b600060208201905081810360008301526136bc81613680565b9050919050565b7f56616c75652062656c6f77207072696365000000000000000000000000000000600082015250565b60006136f9601183612b11565b9150613704826136c3565b602082019050919050565b60006020820190508181036000830152613728816136ec565b9050919050565b7f2e00000000000000000000000000000000000000000000000000000000000000600082015250565b6000613765600183613397565b91506137708261372f565b600182019050919050565b60008190508160005260206000209050919050565b6000815461379d81613241565b6137a78186613397565b945060018216600081146137c257600181146137d357613806565b60ff19831686528186019350613806565b6137dc8561377b565b60005b838110156137fe578154818901526001820191506020810190506137df565b838801955050505b50505092915050565b600061381c8285876133a2565b915061382782613758565b91506138338284613790565b9150819050949350505050565b600061384c8286613790565b91506138588285613602565b91506138648284613790565b9150819050949350505050565b7f7b226e616d65223a202200000000000000000000000000000000000000000000600082015250565b60006138a7600a83613397565b91506138b282613871565b600a82019050919050565b7f222c20226465736372697074696f6e223a202242756c62756c204e616d65205360008201527f65727669636520646f6d61696e222c2022696d616765223a2022646174613a6960208201527f6d6167652f7376672b786d6c3b6261736536342c000000000000000000000000604082015250565b600061393f605483613397565b915061394a826138bd565b605482019050919050565b7f222c20226c656e677468223a2022000000000000000000000000000000000000600082015250565b600061398b600e83613397565b915061399682613955565b600e82019050919050565b7f227d000000000000000000000000000000000000000000000000000000000000600082015250565b60006139d7600283613397565b91506139e2826139a1565b600282019050919050565b60006139f88261389a565b9150613a048286613602565b9150613a0f82613932565b9150613a1b8285613602565b9150613a268261397e565b9150613a328284613602565b9150613a3d826139ca565b9150819050949350505050565b7f646174613a6170706c69636174696f6e2f6a736f6e3b6261736536342c000000600082015250565b6000613a80601d83613397565b9150613a8b82613a4a565b601d82019050919050565b6000613aa182613a73565b9150613aad8284613602565b915081905092915050565b7f446f6d61696e206d757374206265206174206c6561737420312063686172616360008201527f7465720000000000000000000000000000000000000000000000000000000000602082015250565b6000613b14602383612b11565b9150613b1f82613ab8565b604082019050919050565b60006020820190508181036000830152613b4381613b07565b9050919050565b60006040820190508181036000830152613b648185612b66565b90508181036020830152613b788184612b66565b90509392505050565b7f4552433732313a207472616e736665722066726f6d20696e636f72726563742060008201527f6f776e6572000000000000000000000000000000000000000000000000000000602082015250565b6000613bdd602583612b11565b9150613be882613b81565b604082019050919050565b60006020820190508181036000830152613c0c81613bd0565b9050919050565b7f4552433732313a207472616e7366657220746f20746865207a65726f2061646460008201527f7265737300000000000000000000000000000000000000000000000000000000602082015250565b6000613c6f602483612b11565b9150613c7a82613c13565b604082019050919050565b60006020820190508181036000830152613c9e81613c62565b9050919050565b7f4e487b7100000000000000000000000000000000000000000000000000000000600052601160045260246000fd5b6000613cdf82612bc1565b9150613cea83612bc1565b925082821015613cfd57613cfc613ca5565b5b828203905092915050565b6000613d1382612bc1565b9150613d1e83612bc1565b9250827fffffffffffffffffffffffffffffffffffffffffffffffffffffffffffffffff03821115613d5357613d52613ca5565b5b828201905092915050565b7f4552433732313a20617070726f766520746f2063616c6c657200000000000000600082015250565b6000613d94601983612b11565b9150613d9f82613d5e565b602082019050919050565b60006020820190508181036000830152613dc381613d87565b9050919050565b7f4552433732313a207472616e7366657220746f206e6f6e20455243373231526560008201527f63656976657220696d706c656d656e7465720000000000000000000000000000602082015250565b6000613e26603283612b11565b9150613e3182613dca565b604082019050919050565b60006020820190508181036000830152613e5581613e19565b9050919050565b60006060820190508181036000830152613e768186612b66565b90508181036020830152613e8a8185612b66565b90508181036040830152613e9e8184612b66565b9050949350505050565b7f4e487b7100000000000000000000000000000000000000000000000000000000600052603260045260246000fd5b6000613ee282612bc1565b91507fffffffffffffffffffffffffffffffffffffffffffffffffffffffffffffffff821415613f1557613f14613ca5565b5b600182019050919050565b7f4e487b7100000000000000000000000000000000000000000000000000000000600052601260045260246000fd5b6000613f5a82612bc1565b9150613f6583612bc1565b925082613f7557613f74613f20565b5b828204905092915050565b6000613f8b82612bc1565b9150613f9683612bc1565b925082613fa657613fa5613f20565b5b828206905092915050565b60006080820190508181036000830152613fcb8187612b66565b90508181036020830152613fdf8186612b66565b90508181036040830152613ff38185612b66565b90506140026060830184612f97565b95945050505050565b600061401682612bc1565b915061402183612bc1565b9250817fffffffffffffffffffffffffffffffffffffffffffffffffffffffffffffffff048311821515161561405a57614059613ca5565b5b828202905092915050565b7f45524337323155524953746f726167653a2055524920736574206f66206e6f6e60008201527f6578697374656e7420746f6b656e000000000000000000000000000000000000602082015250565b60006140c1602e83612b11565b91506140cc82614065565b604082019050919050565b600060208201905081810360008301526140f0816140b4565b9050919050565b600081519050919050565b600082825260208201905092915050565b600061411e826140f7565b6141288185614102565b9350614138818560208601612b22565b61414181612b55565b840191505092915050565b60006080820190506141616000830187612c56565b61416e6020830186612c56565b61417b6040830185612f97565b818103606083015261418d8184614113565b905095945050505050565b6000815190506141a781612a77565b92915050565b6000602082840312156141c3576141c2612a41565b5b60006141d184828501614198565b91505092915050565b7f4552433732313a206d696e7420746f20746865207a65726f2061646472657373600082015250565b6000614210602083612b11565b915061421b826141da565b602082019050919050565b6000602082019050818103600083015261423f81614203565b9050919050565b7f4552433732313a20746f6b656e20616c7265616479206d696e74656400000000600082015250565b600061427c601c83612b11565b915061428782614246565b602082019050919050565b600060208201905081810360008301526142ab8161426f565b905091905056fe5265676973746572696e672025732e2573206f6e2074686520636f6e7472616374207769746820746f6b656e49442025644142434445464748494a4b4c4d4e4f505152535455565758595a6162636465666768696a6b6c6d6e6f707172737475767778797a303132333435363738392b2fa2646970667358221220d1e4edb3d4cbac70f832de87f9bb5f26ef0c780aaabce01e62443239bba8c44c64736f6c634300080a00333c73766720786d6c6e733d22687474703a2f2f7777772e77332e6f72672f323030302f737667222077696474683d2232373022206865696768743d22323730222066696c6c3d226e6f6e65223e3c706174682066696c6c3d2275726c282342292220643d224d302030683237307632373048307a222f3e3c646566733e3c66696c7465722069643d22412220636f6c6f722d696e746572706f6c6174696f6e2d66696c746572733d2273524742222066696c746572556e6974733d227573657253706163654f6e55736522206865696768743d22323730222077696474683d22323730223e3c666544726f70536861646f772064783d2230222064793d22312220737464446576696174696f6e3d22322220666c6f6f642d6f7061636974793d222e323235222077696474683d223230302522206865696768743d2232303025222f3e3c2f66696c7465723e3c2f646566733e3c7061746820643d224d37322e3836332034322e393439632d2e3636382d2e3338372d312e3432362d2e35392d322e3139372d2e3539732d312e3532392e3230342d322e3139372e35396c2d31302e30383120362e3033322d362e383520332e3933342d31302e30383120362e303332632d2e3636382e3338372d312e3432362e35392d322e3139372e3539732d312e3532392d2e3230342d322e3139372d2e35396c2d382e3031332d342e37323161342e353220342e35322030203020312d312e3538392d312e363136632d2e3338342d2e3636352d2e3539342d312e3431382d2e3630382d322e313837762d392e3331632d2e3031332d2e3737352e3138352d312e3533382e3537322d322e32303861342e323520342e323520302030203120312e3632352d312e3539356c372e3838342d342e3539632e3636382d2e33383720312e3432362d2e353920322e3139372d2e353973312e3532392e32303420322e3139372e35396c372e38383420342e353961342e353220342e353220302030203120312e35383920312e363136632e3338342e3636352e35393420312e3431382e36303820322e31383776362e3033326c362e38352d342e303635762d362e303332632e3031332d2e3737352d2e3138352d312e3533382d2e3537322d322e32303861342e323520342e32352030203020302d312e3632352d312e3539354c34312e3435362032342e3539632d2e3636382d2e3338372d312e3432362d2e35392d322e3139372d2e3539732d312e3532392e3230342d322e3139372e35396c2d31342e38363420382e36353561342e323520342e32352030203020302d312e36323520312e353935632d2e3338372e36372d2e35383520312e3433342d2e35373220322e3230387631372e343431632d2e3031332e3737352e31383520312e3533382e35373220322e32303861342e323520342e323520302030203020312e36323520312e3539356c31342e38363420382e363535632e3636382e33383720312e3432362e353920322e3139372e353973312e3532392d2e32303420322e3139372d2e35396c31302e3038312d352e39303120362e38352d342e3036352031302e3038312d352e393031632e3636382d2e33383720312e3432362d2e353920322e3139372d2e353973312e3532392e32303420322e3139372e35396c372e38383420342e353961342e353220342e353220302030203120312e35383920312e363136632e3338342e3636352e35393420312e3431382e36303820322e31383776392e333131632e3031332e3737352d2e31383520312e3533382d2e35373220322e32303861342e323520342e32352030203020312d312e36323520312e3539356c2d372e38383420342e373231632d2e3636382e3338372d312e3432362e35392d322e3139372e3539732d312e3532392d2e3230342d322e3139372d2e35396c2d372e3838342d342e353961342e353220342e35322030203020312d312e3538392d312e363136632d2e3338352d2e3636352d2e3539342d312e3431382d2e3630382d322e313837762d362e3033326c2d362e383520342e30363576362e303332632d2e3031332e3737352e31383520312e3533382e35373220322e32303861342e323520342e323520302030203020312e36323520312e3539356c31342e38363420382e363535632e3636382e33383720312e3432362e353920322e3139372e353973312e3532392d2e32303420322e3139372d2e35396c31342e3836342d382e363535632e3635372d2e33393420312e3230342d2e393520312e3538392d312e363136732e3539342d312e3431382e3630392d322e3138375635352e353338632e3031332d2e3737352d2e3138352d312e3533382d2e3537322d322e32303861342e323520342e32352030203020302d312e3632352d312e3539356c2d31342e3939332d382e3738367a222066696c6c3d2223666666222f3e3c646566733e3c6c696e6561724772616469656e742069643d2242222078313d2230222079313d2230222078323d22323730222079323d2232373022206772616469656e74556e6974733d227573657253706163654f6e557365223e3c73746f702073746f702d636f6c6f723d2223636235656565222f3e3c73746f70206f66667365743d2231222073746f702d636f6c6f723d2223306364376534222073746f702d6f7061636974793d222e3939222f3e3c2f6c696e6561724772616469656e743e3c2f646566733e3c7465787420783d2233322e352220793d223233312220666f6e742d73697a653d223237222066696c6c3d2223666666222066696c7465723d2275726c282341292220666f6e742d66616d696c793d22506c7573204a616b617274612053616e732c44656a6156752053616e732c4e6f746f20436f6c6f7220456d6f6a692c4170706c6520436f6c6f7220456d6f6a692c73616e732d73657269662220666f6e742d7765696768743d22626f6c64223e4465706c6f796564206120446f6d61696e7320636f6e7472616374207769746820544c443a202573",
    "linkReferences": {},
    "deployedLinkReferences": {}
}